:020000040000fa
:080000000002040000000000f2
:020000040000fa
:10000800d60200009a020000a0020000a60200002a
:10001800ac020000b2020000d6020000d6020000c6
:10002800d6020000d6020000d6020000d602000068
:10003800d6020000d6020000d6020000d602000058
:10004800d6020000d6020000d6020000d602000048
:10005800d6020000d6020000d6020000d602000038
:10006800d6020000d6020000d6020000d602000028
:10007800d6020000d6020000d6020000d602000018
:10008800d6020000d6020000d6020000d602000008
:10009800d6020000d6020000d6020000d6020000f8
:1000a800d6020000d6020000d6020000d6020000e8
:1000b800d6020000d6020000d6020000d6020000d8
:1000c800d6020000d6020000d6020000d6020000c8
:1000d800d6020000d6020000d6020000d6020000b8
:1000e800d6020000d6020000d6020000d6020000a8
:1000f800d6020000d6020000d6020000d602000098
:10010800d6020000d6020000d6020000d602000087
:10011800d6020000d6020000d6020000d602000077
:10012800d6020000d6020000d6020000d602000067
:10013800d6020000d6020000d6020000d602000057
:10014800d6020000d6020000d6020000d602000047
:10015800d6020000d6020000d6020000d602000037
:10016800d6020000d6020000d6020000d602000027
:10017800d6020000d6020000d6020000d602000017
:10018800d6020000d6020000d6020000d602000007
:10019800d6020000d6020000d6020000d6020000f7
:1001a800d6020000d6020000d6020000d6020000e7
:1001b800d6020000d6020000d6020000d6020000d7
:1001c800d6020000d6020000d6020000d6020000c7
:1001d800d6020000d6020000d6020000d6020000b7
:1001e800d6020000d6020000d6020000d6020000a7
:0801f800d6020000d60200004f
:020000040000fa
:10020800d6020000b8020000be020000c4020000ce
:10021800ca020000d0020000d6020000d602000088
:10022800d6020000d6020000d6020000d602000066
:10023800d6020000d6020000d6020000d602000056
:10024800d6020000d6020000d6020000d602000046
:10025800d6020000d6020000d6020000d602000036
:10026800d6020000d6020000d6020000d602000026
:10027800d6020000d6020000d6020000d602000016
:10028800d6020000d6020000d6020000d602000006
:10029800d6020000d6020000d6020000d6020000f6
:1002a800d6020000d6020000d6020000d6020000e6
:1002b800d6020000d6020000d6020000d6020000d6
:1002c800d6020000d6020000d6020000d6020000c6
:1002d800d6020000d6020000d6020000d6020000b6
:1002e800d6020000d6020000d6020000d6020000a6
:1002f800d6020000d6020000d6020000d602000096
:10030800d6020000d6020000d6020000d602000085
:10031800d6020000d6020000d6020000d602000075
:10032800d6020000d6020000d6020000d602000065
:10033800d6020000d6020000d6020000d602000055
:10034800d6020000d6020000d6020000d602000045
:10035800d6020000d6020000d6020000d602000035
:10036800d6020000d6020000d6020000d602000025
:10037800d6020000d6020000d6020000d602000015
:10038800d6020000d6020000d6020000d602000005
:10039800d6020000d6020000d6020000d6020000f5
:1003a800d6020000d6020000d6020000d6020000e5
:1003b800d6020000d6020000d6020000d6020000d5
:1003c800d6020000d6020000d6020000d6020000c5
:1003d800d6020000d6020000d6020000d6020000b5
:1003e800d6020000d6020000d6020000d6020000a5
:0803f800d6020000d60200004d
:020000040000fa
:100400000f8020000e7f24000e01880000000000f5
:10041000000020000000e000020032000001200087
:10042000200288000c000700e02e200001002000c0
:1004300011000700000020000000e0000200320070
:100440000000020000000000da02020000000000cc
:100450000040da000000fe004440a9000000200037
:100460000000e0000300320000002000a00188002e
:100470004440a80000000600910188008000780038
:100480000000eb0015003700e280400032a0b4000d
:100490009101ba00e280400032a0b4009102ba009b
:1004a000e280400032a0b4000002eb00472bde00e7
:1004b000f507b200602ce10004003a000059eb009f
:1004c0008301e900fdff3e00040037006128e100e0
:1004d000010032000082eb00040007001101ba00a5
:1004e0000200e000e8ff3a00000006003159ba00bf
:1004f0008301e9000c0032002159ba008301e900b0
:10050000080032000400e00003003a00e2804000ee
:1005100032a0b400f5ff370011d9ba008301e90019
:10052000faff3a008100e800e180400032a0b40008
:10053000000006000000fa008020a900ffff37003d
:100540000000fa008060a900ffff37000000fa00f9
:100550008040a900ffff37000000fa008080a9005a
:10056000ffff37000000fa0080a0a900ffff37005e
:100570000000fa008020a900ffff37000000fa0009
:100580008060a900ffff37000000fa008040a9004a
:10059000ffff37000000fa008080a900ffff37004e
:1005a0000000fa0080a0a900ffff37000000fa0059
:0405b000ffff370012
:020000040000fa
:1005b4000000fa000200070004000700ffff3700f4
:1005c4000000fa000080fa00000006000000fa00b3
:0805d4000080fa00000006009f
:020000040000fa
:0405dc00000000001b
:00000001FF
