:020000040000fa
:080000000002040000000000f2
:020000040000fa
:100008009a0200009a0200009a0200009a02000078
:100018009a0200009a0200009a0200009a02000068
:100028009a0200009a0200009a020000f6030000fb
:100038009a0200009a0200009a0200009a02000048
:100048009a0200009a0200009a0200009a02000038
:100058009a0200009a0200009a0200009a02000028
:100068009a0200009a0200009a0200009a02000018
:100078009a0200009a0200009a0200009a02000008
:100088009a0200009a0200009a0200009a020000f8
:100098009a0200009a0200009a0200009a020000e8
:1000a8009a0200009a0200009a0200009a020000d8
:1000b8009a0200009a0200009a0200009a020000c8
:1000c8009a0200009a0200009a0200009a020000b8
:1000d8009a0200009a0200009a0200009a020000a8
:1000e8009a0200009a0200009a0200009a02000098
:1000f8009a0200009a0200009a0200009a02000088
:100108009a0200009a0200009a0200009a02000077
:100118009a0200009a0200009a0200009a02000067
:100128009a0200009a0200009a0200009a02000057
:100138009a0200009a0200009a0200009a02000047
:100148009a0200009a0200009a0200009a02000037
:100158009a0200009a0200009a0200009a02000027
:100168009a0200009a0200009a0200009a02000017
:100178009a0200009a0200009a0200009a02000007
:100188009a0200009a0200009a0200009a020000f7
:100198009a0200009a0200009a0200009a020000e7
:1001a8009a0200009a0200009a0200009a020000d7
:1001b8009a0200009a0200009a0200009a020000c7
:1001c8009a0200009a0200009a0200009a020000b7
:1001d8009a0200009a0200009a0200009a020000a7
:1001e8009a0200009a0200009a0200009a02000097
:0801f8009a0200009a020000c7
:020000040000fa
:100208009a0200009a0200009a0200009a02000076
:100218009a0200009a0200009a0200009a02000066
:100228009a0200009a0200009a020000f6030000f9
:100238009a0200009a0200009a0200009a02000046
:100248009a0200009a0200009a0200009a02000036
:100258009a0200009a0200009a0200009a02000026
:100268009a0200009a0200009a0200009a02000016
:100278009a0200009a0200009a0200009a02000006
:100288009a0200009a0200009a0200009a020000f6
:100298009a0200009a0200009a0200009a020000e6
:1002a8009a0200009a0200009a0200009a020000d6
:1002b8009a0200009a0200009a0200009a020000c6
:1002c8009a0200009a0200009a0200009a020000b6
:1002d8009a0200009a0200009a0200009a020000a6
:1002e8009a0200009a0200009a0200009a02000096
:1002f8009a0200009a0200009a0200009a02000086
:100308009a0200009a0200009a0200009a02000075
:100318009a0200009a0200009a0200009a02000065
:100328009a0200009a0200009a0200009a02000055
:100338009a0200009a0200009a0200009a02000045
:100348009a0200009a0200009a0200009a02000035
:100358009a0200009a0200009a0200009a02000025
:100368009a0200009a0200009a0200009a02000015
:100378009a0200009a0200009a0200009a02000005
:100388009a0200009a0200009a0200009a020000f5
:100398009a0200009a0200009a0200009a020000e5
:1003a8009a0200009a0200009a0200009a020000d5
:1003b8009a0200009a0200009a0200009a020000c5
:1003c8009a0200009a0200009a0200009a020000b5
:1003d8009a0200009a0200009a0200009a020000a5
:1003e8009a0200009a0200009a0200009a02000095
:0803f8009a0200009a020000c5
:020000040000fa
:100400008f8020000e7f24000e0188000000000075
:10041000000020000000e000020032000001200087
:10042000200288000c00070040412000010020004d
:1004300011000700000020000000e0000200320070
:1004400000000200000000009e0202000000000008
:100450000040da000000fe004440a9000000200037
:100460000000e0000300320000002000a00188002e
:100470004440a80000000600910188008000780038
:100480000000eb0015003700e280400032a0b4000d
:100490009101ba00e280400032a0b4009102ba009b
:1004a000e280400032a0b4000002eb00472bde00e7
:1004b000f507b200602ce10004003a000059eb009f
:1004c0008301e900fdff3e00040037006128e100e0
:1004d000010032000082eb00040007001101ba00a5
:1004e0000200e000e8ff3a00000006003159ba00bf
:1004f0008301e9000c0032002159ba008301e900b0
:10050000080032000400e00003003a00e2804000ee
:1005100032a0b400f5ff370011d9ba008301e90019
:10052000faff3a008100e800e180400032a0b40008
:0c053000000006000040da000000fe00a1
:020000040000fa
:10053c000200fa0074c6b300044f78000082eb008e
:10054c00641988000002eb00241688000002eb00fe
:10055c00041688000002eb00641688000002eb0011
:10056c0044168800c8c2a800253a800004fe2f005b
:10057c0004826200243a880094022000343a8800f5
:10058c00243a80000460a1000470a100243a880081
:10059c0000000000153a8000040220000482620072
:1005ac00e00f5200fbff32007c0007002535800075
:1005bc0004fe2f00048262006400b300243588001e
:1005cc0035368000f40f2e00848262000430200047
:1005dc00050272003436880054052000441188004e
:1005ec000002eb00041188002062a8000002eb005e
:1005fc001411880021e2a8008560a90000c2b30094
:10060c003c00070080c6b3003a00070050c6b30098
:10061c0038000700c0c6b30036000700c0c6b300e0
:10062c0034000700f0c6b3003200070001003700a9
:10063c000000000014408000e00f52000e00320059
:10064c000540800024032000848f52000a003a00e9
:10065c00241680000482ea002416880064168000a8
:10066c000482ea00641688000002eb000440880053
:10067c000002eb00144088000000000000000000a5
:10068c00000000000900070000427800e14f520012
:10069c00e7ff3a000c00070000427800044f780096
:1006ac001e40780013000700e2ff37000000fa003c
:1006bc00141180000442780061426200044078000a
:1006cc000080fa00000006000000fa0000000000a4
:1006dc001411800061026200e00f5200fcff320036
:1006ec003411800004427800044078000080fa0045
:1006fc00000006000200fa00004f78006480200021
:10070c0014427800e04f5200070032006480200051
:10071c00144278000442e90004437800658020000c
:10072c00864a78000f003700151180000440200025
:10073c0004826200e00f520002003a002342a8003b
:10074c00010037000000000015118000042020007b
:10075c0004826200e00f5200fbff3a001e02fb0015
:10076c00241188000080fa00000006000000fa0046
:10077c0054052000441188000002eb00041188008d
:10078c002062a8000002eb001411880021e2a800ee
:10079c008560a9000080fa00000006000000fa0045
:1007ac000002eb00240888008460a9002405800066
:1007bc0004c0a10004d0a10004e0a000240588001e
:1007cc009460a8000082eb001408880004a1a90022
:1007dc000421a90005e1a8000080fa000000060031
:1007ec00841f78003400f80004002000a401880065
:1007fc000000fa001400200014408800044080001f
:10080c000402e800044088008460a9000080fa001b
:0c081c003400f9004f0278000040060094
:020000040000fa
:1008280000080000060000000000000006080000a4
:1008380002000000020000000100000000000000ab
:020000040000fa
:0200000401f009
:04000c00f9ff0000f8
:020000040000fa
:0200000401f009
:04001000bfff00002e
:020000040000fa
:0200000401f009
:040014007fff00006a
:00000001FF
